:100000000C9434000C943E000C943E000C943E0082
:100010000C943E000C943E000C943E000C943E0068
:100020000C943E000C943E000C943E000C943E0058
:100030000C943E000C943E000C943E000C943E0048
:100040000C943E000C943E000C943E000C943E0038
:100050000C943E000C943E000C943E000C943E0028
:100060000C943E000C943E0011241FBECFEFD8E04C
:10007000DEBFCDBF0E946B000C949F000C9400006B
:1000800080E480937C0086E880937A00089588302D
:1000900008F080E0ECE7F0E09081907F8F70892B92
:1000A0008083EAE7F0E080818064808380917A0039
:1000B00086FDFCCF80917800909179000895F894A6
:1000C0000E9440000E9491008FEF8AB91BB878947B
:1000D00008958BB908950E945F0086E00E94470052
:1000E000182F092F87E00E944700C82FD92F0E94A0
:1000F0009A008A3A79F485E58EBD0E949A000EBD79
:100100000E949A001EBD0E949A00DEBD0E949A00C5
:10011000CEBDE3CF8C3C09F70E949A000E94690093
:10012000DCCF84B1806184B984B1837D84B980E4FB
:100130008CBD08950DB407FEFDCF8EB50895F894DB
:02014000FFCFEF
:00000001FF
