S01400004C4142335F4D41455354524F2E7372656394
S11300000C9434000C9451000C9451000C94510045
S11300100C9451000C9451000C9451000C94510018
S11300200C9451000C9451000C9451000C94510008
S11300300C9451000C9451000C9451000C945100F8
S11300400C9451000C9451000C942E010C9451000A
S11300500C9451000C9451000C9451000C945100D8
S11300600C9451000C94510011241FBECFEFD8E022
S1130070DEBFCDBF11E0A0E0B1E0E8E8F9E002C0E6
S113008005900D92A432B107D9F721E0A4E2B1E0C2
S113009001C01D92AC32B207E1F70E94C5000C9476
S11300A0C2040C940000F8940E9485010E94760119
S11300B0ECEBF0E080818B7F808384B1846084B931
S11300C085B1846085B98AB18C608AB987B18F6340
S11300D087B9789408950F931F93CF93DF93CDB787
S11300E0DEB7E2970FB6F894DEBF0FBECDBF7F93A5
S11300F06F939F938F9380E091E09F938F938E01F2
S11301000F5F1F4F1F930F930E94D801C8010E94D5
S1130110A5010FB6F894DEBF0FBECDBFE2960FB6B1
S1130120F894DEBF0FBECDBFDF91CF911F910F9129
S1130130089585B18B7F85B98AEA0E947F0195B1C4
S1130140946095B9EFE3FCE93197F1F700C0000042
S1130150853579F7089598B1382F907C282F2F731F
S1130160922B98B986FF04C08BB184608BB903C00D
S11301708BB18B7F8BB9332324F48BB188608BB91B
S113018008958BB1877F8BB90895CF93DF93CDB753
S1130190DEB76E970FB6F894DEBF0FBECDBF0E94D8
S11301A053000E94990085B18B7F85B980E00E943D
S11301B07F01082F80E00E947F01F82E80E00E94DA
S11301C07F01182F80E00E947F0195B1946095B95A
S11301D0202F30E0322F2227612F70E0762F662700
S11301E0682BC9018F290E946B0080912501882307
S11301F059F110922501809124010E94AB00809155
S113020024011F928F9385E191E09F938F938E0138
S11302100F5F1F4F1F930F930E94D801C8010E94C4
S1130220A50185B18B7F85B98CEC0E947F018091FB
S113023024010E947F0185B1846085B90F900F90DD
S11302400F900F900F900F902FEF89E698E12150B7
S113025080409040E1F700C00000A3CF1F920F92AE
S11302600FB60F9211242F933F934F935F936F9385
S11302707F938F939F93AF93BF93EF93FF9380915B
S1130280C6008D30A1F4E0912601F0E0E95DFE4F57
S1130290108287E291E00E94B20180932401809150
S11302A0240181E080932501109226010EC09091D3
S11302B02601943050F4E091260191E09E0F909332
S11302C02601F0E0E95DFE4F8083FF91EF91BF913D
S11302D0AF919F918F917F916F915F914F913F91DA
S11302E02F910F900FBE0F901F90189584B18C62C0
S11302F084B984B18F7E84B981E58CBD08958EBDA7
S11303000DB407FEFDCF8EB508958AB182608AB917
S11303108AB18E7F8AB91092C000E1ECF0E080814E
S113032088698083E2ECF0E080818660808387E6E0
S113033090E09093C5008093C40008959091C0000C
S113034095FFFCCF8093C6000895CF93DF93EC0113
S113035003C021960E949E0188818111FACFDF910A
S1130360CF910895FC0188279927E89421912032A0
S1130370E9F3293010F02E30C8F32B3241F02D323E
S113038039F4689404C00E94D001820F911D219118
S113039020532A30C0F31EF4909581959F4F089501
S11303A07AE0979F902D879F802D910D11240895B9
S11303B0AEE0B0E0EEEDF1E00C9499040D891E89F5
S11303C086E08C831A8309838FEF9FE79E838D8356
S11303D0AE01475E5F4F6F89788DCE0101960E9412
S11303E0FA01EF81F885E00FF11F10822E96E4E008
S11303F00C94B504ABE0B0E0E0E0F2E00C948B04C4
S11304006C017B018A01FC0117821682838181FFC2
S1130410CCC1CE0101963C01F6019381F70193FD15
S1130420859193FF81917F01882309F4BAC18532B4
S113043039F493FD859193FF81917F01853229F4ED
S1130440B60190E00E94F103E7CF912C212C312CCE
S1130450FFE1F315D8F08B3279F038F4803279F07B
S11304608332A1F4232D20611DC08D3261F08033CD
S113047069F4232D216016C0832D8260382EE32D6C
S1130480E4603E2E2AC0F32DF8601DC037FC2DC059
S113049020ED280F2A3040F08E32B9F436FC81C1A9
S11304A0232D2064322E19C036FE06C08AE0989EA1
S11304B0200D1124922E11C0EAE02E9E200D11244D
S11304C0222EF32DF0623F2E08C08C3621F4832DAA
S11304D08068382E02C0883641F4F70193FD859177
S11304E093FF81917F018111B3CF982F9F7D955404
S11304F0933028F40C5F1F4F9FE399830DC083361C
S113050031F0833771F0833509F059C021C0F80107
S1130510808189830E5F1F4F88248394912C53011B
S113052013C02801F2E04F0E511CF801A080B180E5
S113053036FE03C0692D70E002C06FEF7FEFC50186
S11305400E94E6034C018201F32DFF773F2E16C073
S1130550280122E0420E511CF801A080B18036FE31
S113056003C0692D70E002C06FEF7FEFC5010E94E8
S1130570DB034C01F32DF0683F2E820133FC1BC0DA
S1130580822D90E088169906B0F4B60180E290E0DE
S11305900E94F1032A94F4CFF50137FC859137FECC
S11305A081915F01B60190E00E94F10321102A9429
S11305B021E0821A91088114910471F7E8C084360D
S11305C011F0893641F5F80137FE07C06081718169
S11305D0828193810C5F1F4F08C060817181072E57
S11305E0000C880B990B0E5F1F4FF32DFF763F2EE7
S11305F097FF09C090958095709561957F4F8F4FB7
S11306009F4FF0683F2E2AE030E0A3010E942D04A2
S1130610882E861845C0853731F4232D2F7EB22EBF
S11306202AE030E025C0932D997FB92E8F36C1F092
S113063018F4883579F0B5C0803719F0883721F07F
S1130640B0C0E92FE061BE2EB4FE0DC0FB2DF460F6
S1130650BF2E09C034FE0AC0292F2660B22E06C060
S113066028E030E005C020E130E002C020E132E0C3
S1130670F801B7FE07C060817181828193810C5FAC
S11306801F4F06C06081718180E090E00E5F1F4FB4
S1130690A3010E942D04882E8618FB2DFF773F2E80
S11306A036FE0DC0232D2E7FA22E891458F434FE5D
S11306B00BC032FC09C0832D8E7EA82E05C0B82C39
S11306C0A32C03C0B82C01C0B92CA4FE0FC0FE019A
S11306D0E80DF11D8081803321F49A2D997EA92E95
S11306E009C0A2FE06C0B394B39404C08A2D8678D0
S11306F009F0B394A3FC11C0A0FE06C0B21488F4A0
S1130700280C922C9B180EC0B21460F4B60180E23F
S113071090E00E94F103B394F7CFB21418F42B18AD
S113072002C0982C212CA4FE10C0B60180E390E0F6
S11307300E94F103A2FE17C0A1FC03C088E790E069
S113074002C088E590E0B6010CC08A2D867859F085
S1130750A1FE02C08BE201C080E2A7FC8DE2B601DB
S113076090E00E94F103891438F4B60180E390E02C
S11307700E94F1039A94F7CF8A94F301E80DF11DD6
S11307808081B60190E00E94F1038110F5CF222010
S113079009F442CEB60180E290E00E94F1032A946B
S11307A0F6CFF6018681978102C08FEF9FEF2B96DB
S11307B0E2E10C94A704FC01059061507040011023
S11307C0D8F7809590958E0F9F1F0895FC01615076
S11307D0704001900110D8F7809590958E0F9F1F5F
S11307E008950F931F93CF93DF93FB01238121FD82
S11307F003C08FEF9FEF2CC022FF16C046815781A4
S1130800248135814217530744F4A081B1819D01AD
S11308102F5F3F4F318320838C93268137812F5F55
S11308203F4F3783268314C08B01EC01FB01008406
S1130830F185E02D0995892BE1F6D80116968D9165
S11308409C911797019617969C938E931697CE01B9
S1130850DF91CF911F910F910895FA01AA272830B3
S113086051F1203181F1E8946F936E7F6E5F7F4F79
S11308708F4F9F4FAF4FB1E03ED0B4E03CD0670FF5
S1130880781F891F9A1FA11D680F791F8A1F911D48
S1130890A11D6A0F711D811D911DA11D20D009F498
S11308A068943F912AE0269F11243019305D3193DA
S11308B0DEF6CF010895462F4770405D4193B3E0C3
S11308C00FD0C9F7F6CF462F4F70405D4A3318F06A
S11308D0495D31FD4052419302D0A9F7EACFB4E01B
S11308E0A6959795879577956795BA95C9F70097D3
S11308F06105710508959B01AC010A2E0694579574
S1130900479537952795BA95C9F7620F731F841FCA
S1130910951FA01D08952F923F924F925F926F9260
S11309207F928F929F92AF92BF92CF92DF92EF927B
S1130930FF920F931F93CF93DF93CDB7DEB7CA1BFC
S1130940DB0B0FB6F894DEBF0FBECDBF09942A8827
S1130950398848885F846E847D848C849B84AA84CF
S1130960B984C884DF80EE80FD800C811B81AA815C
S1130970B981CE0FD11D0FB6F894DEBF0FBECDBF27
S10B0980ED010895F894FFCF86
S1130988506F74313A2025750920506F74323A201B
S113099825750D0A00526563696269646F3A2025FA
S10709A8750D0A00BB
S9030000FC
